S00E000055706C696E6B2E73726563A3
S11300000C94FE000C941F010C941F010C941F010E
S11300100C941F010C941F010C941F010C941F01DC
S11300200C941F010C941F010C941F010C941F01CC
S11300300C941F010C941F010C941F010C941F01BC
S11300400C941F010C941F010C941F010C941F01AC
S11300500C941F010C941F010C941F010C941F019C
S11300600C941F010C941F010C941F010C941F018C
S11300700C941F010C941F010C941F010C941F017C
S11300800C941F010C941F010C941F010C941F016C
S11300900C941F010C941F010C941F010C941F015C
S11300A00C941F010C941F010C941F010C941F014C
S11300B00C941F010C941F010C941F010C941F013C
S11300C00C941F010C941F010C941F010C941F012C
S11300D00C941F010C941F010C941F010C941F011C
S11300E00C941F010C941F010C941F010C941F010C
S11300F00C941F010C941F010C941F010C941F01FC
S11301000C941F010C941F010C941F010C941F01EB
S11301100C941F010C941F010C941F010C941F01DB
S11301200C941F010C941F010C941F010C941F01CB
S11301300C941F010C941F010C941F010C941F01BB
S11301400C941F010C941F010C941F010C941F01AB
S11301500C941F010C941F010C941F010C941F019B
S11301600C941F010C941F010C941F010C941F018B
S11301700C941F010C941F010C941F010C941F017B
S11301800C941F010C941F010C941F010C941F016B
S11301900C941F010C941F010C941F010C941F015B
S11301A00C941F010C941F010C941F010C941F014B
S11301B00C941F010C941F010C941F010C941F013B
S11301C00C941F010C941F010C941F010C941F012B
S11301D00C941F010C941F010C941F010C941F011B
S11301E00C941F010C941F010C941F010C941F010B
S11301F00C941F010C941F010C941F0111241FBEA9
S1130200CFEFCDBFDFE3DEBF00E00CBF10E2A0E024
S1130210B0E2E0ECF8E000E00BBF02C007900D9202
S1130220AE32B107D9F721E2AEE2B0E201C01D92CD
S1130230AB39B207E1F70E9434040C945E040C94C9
S113024000007FEF760F662329F1E82FF92F4FEF97
S11302505FEF21912527322F32953F70922F9327FC
S1130260292F30E0542F442742275327C901982FC0
S113027088279295907F48275927220F331F22956C
S11302803295307F3227207F3227422753277150FF
S113029000F702C04FEF5FEFCA010895FC01958596
S11302A026859F5F937081E0921301C080E00895DA
S11302B01F93CF93DF93EC01162F0E944E018823E6
S11302C079F09D85FE01E90FF11D17839F5F9370FF
S11302D09D87E881F98193819C7F2A81922B938366
S11302E0DF91CF911F910895CF93DF93E0E8F6E07B
S11302F020E1218380E2818390E8918338E3348B89
S11303002583A8EFB0E2C0ECD8E0CD93DC9311973D
S11303101296ED93FC93139714961C92149728ED60
S11303202883CD91DC911197198215961D921C9208
S1130330169712960D90BC91A02D20EA11962C933D
S113034095838683DF91CF91089590E190938606FB
S1130350E0E8F6E0908596FDFDCF80688093C308C1
S1130360E2ECF8E080818823ECF7E3ECF8E08081AC
S11303701082E2ECF8E080818823ECF78091C308D6
S113038090E190938506089590E190938606E0E8C5
S1130390F6E0908596FDFDCF8093C308E2ECF8E08B
S11303A080818823ECF7E3ECF8E080816083E2EC61
S11303B0F8E080818823ECF78091C30890E1909362
S11303C08506089590E190938606E0E8F6E090852E
S11303D096FDFDCF8093C308E2ECF8E0808188238A
S11303E0ECF78091C30890E1909385060895CF932C
S11303F0DF9390E190938606E0E8F6E0908596FD21
S1130400FDCF806C8093C308E2ECF8E08081882300
S1130410ECF78091C3084115510581F0DB01460FCB
S1130420571FC3ECD8E0E2ECF8E0188280818823FF
S1130430ECF788818D93A417B507B9F780E1809311
S11304408506DF91CF910895CF93DF9390E1909348
S11304508606E0E8F6E0908596FDFDCF8064809303
S1130460C308E2ECF8E080818823ECF78091C308AC
S11304704115510579F0DB01460F571FC3ECD8E055
S1130480E2ECF8E08D91888380818823ECF7A4174F
S1130490B507C1F780E180938506DF91CF91089578
S11304A0E0E8F6E080E1858300C0868300C08583B0
S11304B09BE19A95F1F700008683808586FDFDCF48
S11304C081E28A95F1F7000080E38093C308E2ECAF
S11304D0F8E080818823ECF78091C308E0E8F6E037
S11304E0808586FDFDCF91E29A95F1F7000080E1C9
S11304F0809385060895CF93DF93E0E4F6E098E0D7
S1130500918394E09283A9EEB0E2E0EAF8E0ED93FF
S1130510FC93119791E012969C9312971C961C924F
S11305201C971B961C921B971E961C921E971D9639
S11305301C9293E0958393819F7C906193839CE0CC
S113054096831782948190619483948198609483B4
S1130550E0EAF0E0928191609283789480936C2039
S1130560CCE6D0E2688189EE90E20E9458018823AB
S1130570C9F3DF91CF910895CF93BC01E0E4F6E095
S113058088E0818384E08283A9EEB0E2E0EAF8E0C7
S1130590ED93FC93119781E012968C9312971C961D
S11305A01C921C971B961C921B971E961C921E97BE
S11305B01D961C9283E0858393819F7C9061938335
S11305C08CE08683178294819061948394819860EF
S11305D09483E0EAF0E092819160928378948CE6CF
S11305E090E20E945704C0E0EC2FF0E0E459FF4D84
S11305F0608189EE90E20E9458018111CF5FCD3372
S113060098F3CF91089568E080E00E94C40169E006
S113061081E00E94C40160E383E00E94C40168E0B9
S113062088E00E94C40160E08DE00E94C40166E09D
S113063082E10E94C4016AE083E10E94C40169EA84
S11306408CE10E94C40165E086E20E94C40160E07E
S113065087E20E94C40168E081E90E94C40169E262
S11306608BE00E94C40160E58FE00E94C40168E44D
S113067084E10E94C40163E985E10E94C40165E745
S113068086E10E94C4016EE781E20E94C4016EE724
S11306908DE20E94C4016DE68CE00E94C4016DE706
S11306A08DE00E94C40161E88EE00E94C4010895B7
S11306B0CF93DF93CDB7DEB7EE97CDBFDEBF1092F9
S11306C02E2086E30E94E20141E050E060E070E207
S11306D08EE30E94240283EF91E00197F1F700C0BA
S11306E000008AE30E94E20184E30E94E20100E840
S11306F016E07E019BE3E90EF11C0F2EFFE44F2E62
S1130700F1E25F2EF02D0F2EFDE67F2EF02D0F2E41
S1130710F2E7AF2EF1E2BF2EF02D0F2EFBE28F2E6B
S1130720F0E29F2EF02D8BEF0E94A501F801808549
S113073080FFF9CFF801808580FDFCCF8BEF0E940C
S1130740A5014DE350E0BE016F5F7F4F8FE30E9430
S1130750F7018AE30E94E20184E30E94E2018A81B4
S1130760833409F06AC08B81813509F066C086E163
S113077090E20E94BC02FE0179960F2EFFE4CF2E78
S1130780F1E2DF2EF02DD60181918D93EE15FF0558
S1130790D9F7F20113A269E3CE0102960E94210166
S11307A08093E7209093E82083EC99E00197F1F798
S11307B000C000009091E7208091E8209093E6200B
S11307C080939A21E7E8F3E13197F1F700C0000044
S11307D083EC99E00197F1F700C00000E7E8F3E14A
S11307E03197F1F700C000009BAD8091E62098138B
S11307F024C09CAD80919A2198131FC083EC99E08A
S11308000197F1F700C00000E3ECF9E03197F1F74C
S113081000C00000F20172A2F60181916F010E94F2
S11308207B02CA14DB04C1F783EC99E00197F1F76A
S113083000C00000882D0E947B0286E30E94E20132
S113084041E050E060E070E28EE30E942402E3EFB6
S1130850F1E03197F1F700C000008AE30E94E20161
S113086084E30E94E2015FCFF8940E9474017894BB
S11308702FEF84E39CE0215080409040E1F700C0DA
S113088000000E9450020E94030381EF0E94A50110
S11308902FEF88E09DE3215080409040E1F700C0B5
S11308A0000083E290E20E94BC020E945803FB0114
S11308B0DC0101900D920020E1F70895F894FFCF38
S11308C0C043512020202000565532425547005243
S11308D0454C41592000456E746572656420696613
S11108E0200A0053746172746564200A0000DB
S9030000FC
