:100000000C94FE000C941F010C941F010C941F0112
:100010000C941F010C941F010C941F010C941F01E0
:100020000C941F010C941F010C941F010C941F01D0
:100030000C941F010C941F010C941F010C941F01C0
:100040000C941F010C941F010C941F010C941F01B0
:100050000C941F010C941F010C941F010C941F01A0
:100060000C941F010C941F010C941F010C941F0190
:100070000C941F010C941F010C941F010C941F0180
:100080000C941F010C941F010C941F010C941F0170
:100090000C941F010C941F010C941F010C941F0160
:1000A0000C941F010C941F010C941F010C941F0150
:1000B0000C941F010C941F010C941F010C941F0140
:1000C0000C941F010C941F010C941F010C941F0130
:1000D0000C941F010C941F010C941F010C941F0120
:1000E0000C941F010C941F010C941F010C941F0110
:1000F0000C941F010C941F010C941F010C941F0100
:100100000C941F010C941F010C941F010C941F01EF
:100110000C941F010C941F010C941F010C941F01DF
:100120000C941F010C941F010C941F010C941F01CF
:100130000C941F010C941F010C941F010C941F01BF
:100140000C941F010C941F010C941F010C941F01AF
:100150000C941F010C941F010C941F010C941F019F
:100160000C941F010C941F010C941F010C941F018F
:100170000C941F010C941F010C941F010C941F017F
:100180000C941F010C941F010C941F010C941F016F
:100190000C941F010C941F010C941F010C941F015F
:1001A0000C941F010C941F010C941F010C941F014F
:1001B0000C941F010C941F010C941F010C941F013F
:1001C0000C941F010C941F010C941F010C941F012F
:1001D0000C941F010C941F010C941F010C941F011F
:1001E0000C941F010C941F010C941F010C941F010F
:1001F0000C941F010C941F010C941F0111241FBEAD
:10020000CFEFCDBFDFE3DEBF00E00CBF10E2A0E028
:10021000B0E2ECE4F9E000E00BBF02C007900D9201
:10022000A234B107D9F721E2A2E4B0E201C01D92E5
:10023000AF3AB207E1F70E9478040C94A4040C943E
:1002400000007FEF760F662329F1E82FF92F4FEF9B
:100250005FEF21912527322F32953F70922F932700
:10026000292F30E0542F442742275327C901982FC4
:1002700088279295907F48275927220F331F229570
:100280003295307F3227207F322742275327715003
:1002900000F702C04FEF5FEFCA010895FC0195859A
:1002A00026859F5F937081E0921301C080E00895DE
:1002B0001F93CF93DF93EC01162F0E944E018823EA
:1002C00079F09D85FE01E90FF11D17839F5F937003
:1002D0009D87E881F98193819C7F2A81922B93836A
:1002E000DF91CF911F910895CF93DF93E0E8F6E07F
:1002F00020E1218380E2818390E8918338E3348B8D
:100300002583ACE0B1E2C0ECD8E0CD93DC9311974B
:100310001296ED93FC93139714961C92149728ED64
:100320002883CD91DC911197198215961D921C920C
:10033000169712960D90BC91A02D20EA11962C9341
:1003400095838683DF91CF91089590E190938606FF
:10035000E0E8F6E0908596FDFDCF80688093C308C5
:10036000E2ECF8E080818823ECF7E3ECF8E08081B0
:100370001082E2ECF8E080818823ECF78091C308DA
:1003800090E190938506089590E190938606E0E8C9
:10039000F6E0908596FDFDCF8093C308E2ECF8E08F
:1003A00080818823ECF7E3ECF8E080816083E2EC65
:1003B000F8E080818823ECF78091C30890E1909366
:1003C0008506089590E190938606E0E8F6E0908532
:1003D00096FDFDCF8093C308E2ECF8E0808188238E
:1003E000ECF78091C30890E1909385060895CF9330
:1003F000DF9390E190938606E0E8F6E0908596FD25
:10040000FDCF806C8093C308E2ECF8E08081882304
:10041000ECF78091C3084115510581F0DB01460FCF
:10042000571FC3ECD8E0E2ECF8E018828081882303
:10043000ECF788818D93A417B507B9F780E1809315
:100440008506DF91CF910895CF93DF9390E190934C
:100450008606E0E8F6E0908596FDFDCF8064809307
:10046000C308E2ECF8E080818823ECF78091C308B0
:100470004115510579F0DB01460F571FC3ECD8E059
:10048000E2ECF8E08D91888380818823ECF7A41753
:10049000B507C1F780E180938506DF91CF9108957C
:1004A000E0E8F6E080E1858300C0868300C08583B4
:1004B0009BE19A95F1F700008683808586FDFDCF4C
:1004C00081E28A95F1F7000080E38093C308E2ECB3
:1004D000F8E080818823ECF78091C308E0E8F6E03B
:1004E000808586FDFDCF91E29A95F1F7000080E1CD
:1004F000809385060895CF93DF93E0E4F6E098E0DB
:10050000918394E09283ADEFB0E2E0EAF8E0ED93FE
:10051000FC93119791E012969C9312971C961C9253
:100520001C971B961C921B971E961C921E971D963D
:100530001C9293E0958393819F7C906193839CE0D0
:1005400096831782948190619483948198609483B8
:10055000E0EAF0E092819160928378948093802029
:10056000C0E8D0E268818DEF90E20E9458018823B4
:10057000C9F3DF91CF910895CF93BC01E0E4F6E099
:1005800088E0818384E08283ADEFB0E2E0EAF8E0C6
:10059000ED93FC93119781E012968C9312971C9621
:1005A0001C921C971B961C921B971E961C921E97C2
:1005B0001D961C9283E0858393819F7C9061938339
:1005C0008CE08683178294819061948394819860F3
:1005D0009483E0EAF0E0928191609283789480E8DD
:1005E00090E20E949D04C0E0EC2FF0E0E058FF4D47
:1005F00060818DEF90E20E9458018111CF5FCD3371
:1006000098F3CF910895CF93DF93EC01688182E056
:100610000E94C40182E00E94A501698183E00E94DA
:10062000C40183E00E94A5016A8188E00E94C401A0
:1006300088E00E94A5016B818BE00E94C4018BE0E1
:100640000E94A5016C818DE00E94C4018DE00E9492
:10065000A5016D818EE00E94C4018EE00E94A5017B
:100660006E818FE00E94C4018FE00E94A5016F811E
:1006700080E10E94C40180E10E94A501688581E1BA
:100680000E94C40181E10E94A501698582E10E9466
:10069000C40182E10E94A5016A8585E10E94C4012E
:1006A00085E10E94A5016B8588E10E94C40188E173
:1006B0000E94A5016C8589E10E94C40189E10E9424
:1006C000A5016D8580E20E94C40180E20E94A5011F
:1006D0006E8583E20E94C40183E20E94A5016F85BA
:1006E00084E20E94C40184E20E94A501688985E237
:1006F0000E94C40185E20E94A501698986E20E94E8
:10070000C40186E20E94A5016A898CE20E94C401AC
:100710008CE20E94A5016B898DE20E94C4018DE2EA
:100720000E94A5016C898EE20E94C4018EE20E94A3
:10073000A501DF91CF910895CF93DF93CDB7DEB7B9
:10074000EE97CDBFDEBF1092422086E30E94E20109
:1007500041E050E060E070E28EE30E94240283EF0B
:1007600091E00197F1F700C000008AE30E94E201E6
:1007700084E30E94E20100E816E07E019BE3E90EBB
:10078000F11C0F2EF3E64F2EF1E25F2EF02D0F2E0F
:10079000FDE67F2EF02D0F2EF6E8AF2EF1E2BF2EF4
:1007A000F02D0F2EF0E48F2EF0E29F2EF02D8BEF28
:1007B0000E94A501F801808580FFF9CFF8018085AE
:1007C00080FDFCCF8BEF0E94A5014DE350E0BE0100
:1007D0006F5F7F4F8FE30E94F7018AE30E94E2017F
:1007E00084E30E94E2018A81833409F06AC08B812C
:1007F000813509F066C08BE290E20E94BC02FE01E6
:1008000079960F2EF3E6CF2EF1E2DF2EF02DD601F2
:1008100081918D93EE15FF05D9F7F20113A269E3DB
:10082000CE0102960E9421018093FB209093FC2030
:1008300083EC99E00197F1F700C000009091FB2054
:100840008091FC209093FA208093AE21E7E8F3E1B9
:100850003197F1F700C0000083EC99E00197F1F7C0
:1008600000C00000E7E8F3E13197F1F700C00000B5
:100870009BAD8091FA20981324C09CAD8091AE214D
:1008800098131FC083EC99E00197F1F700C00000B6
:10089000E3ECF9E03197F1F700C00000F20172A239
:1008A000F60181916F010E947B02CA14DB04C1F73B
:1008B00083EC99E00197F1F700C00000882D0E94B9
:1008C0007B0286E30E94E20141E050E060E070E2DA
:1008D0008EE30E942402E3EFF1E03197F1F700C0CC
:1008E00000008AE30E94E20184E30E94E2015FCFFC
:1008F000F8940E94740178942FEF84E39CE02150D7
:1009000080409040E1F700C000000E94500281E06A
:1009100090E20E94030381EF0E94A5012FEF88E07F
:100920009DE3215080409040E1F700C0000088E343
:1009300090E20E94BC020E949C03FB01DC0101903A
:0C0940000D920020E1F70895F894FFCF1D
:10094C00C0064F050610D340F88343151816FBE973
:10095C002A001F8135094351202020200056553292
:10096C004255470052454C41592000456E74657202
:10097C006564206966200A00537461727465642092
:02098C000A005F
:00000001FF
