:100000000C94FE000C941F010C941F010C941F0112
:100010000C941F010C941F010C941F010C941F01E0
:100020000C941F010C941F010C941F010C941F01D0
:100030000C941F010C941F010C941F010C941F01C0
:100040000C941F010C941F010C941F010C941F01B0
:100050000C941F010C941F010C941F010C941F01A0
:100060000C941F010C941F010C941F010C941F0190
:100070000C941F010C941F010C941F010C941F0180
:100080000C941F010C941F010C941F010C941F0170
:100090000C941F010C941F010C941F010C941F0160
:1000A0000C941F010C941F010C941F010C941F0150
:1000B0000C941F010C941F010C941F010C941F0140
:1000C0000C941F010C941F010C941F010C941F0130
:1000D0000C941F010C941F010C941F010C941F0120
:1000E0000C941F010C941F010C941F010C941F0110
:1000F0000C941F010C941F010C941F010C941F0100
:100100000C941F010C941F010C941F010C941F01EF
:100110000C941F010C941F010C941F010C941F01DF
:100120000C941F010C941F010C941F010C941F01CF
:100130000C941F010C941F010C941F010C941F01BF
:100140000C941F010C941F010C941F010C941F01AF
:100150000C941F010C941F010C941F010C941F019F
:100160000C941F010C941F010C941F010C941F018F
:100170000C941F010C941F010C941F010C941F017F
:100180000C941F010C941F010C941F010C941F016F
:100190000C941F010C941F010C941F010C941F015F
:1001A0000C941F010C941F010C941F010C941F014F
:1001B0000C941F010C941F010C941F010C941F013F
:1001C0000C941F010C941F010C941F010C941F012F
:1001D0000C941F010C941F010C941F010C941F011F
:1001E0000C941F010C941F010C941F010C941F010F
:1001F0000C941F010C941F010C941F0111241FBEAD
:10020000CFEFCDBFDFE3DEBF00E00CBF10E2A0E028
:10021000B0E2ECE1F7E000E00BBF02C007900D9206
:10022000A837B107D9F721E2A8E7B0E201C01D92D3
:10023000A23DB207E1F70E9437030C948C030C94A3
:1002400000007FEF760F662329F1E82FF92F4FEF9B
:100250005FEF21912527322F32953F70922F932700
:10026000292F30E0542F442742275327C901982FC4
:1002700088279295907F48275927220F331F229570
:100280003295307F3227207F322742275327715003
:1002900000F702C04FEF5FEFCA010895CF92DF92DF
:1002A000EF92FF920F931F93CF93DF93CDB7DEB7FB
:1002B000C055D109CDBFDEBF6C018EE7D6018D934D
:1002C0007D0186E0EFE3F0E2DE01119601900D92F0
:1002D0008A95E1F7CE010196D7019E01295F3F4F34
:1002E000FC0141914D93E217F307D9F740E6F6017F
:1002F000478346E0E6E4F0E2DE01119601900D92BC
:100300004A95E1F7D6011896FC0141914D93E21709
:10031000F307D9F748E6D6011E964C9346E0EDE484
:10032000F0E2DE01119601900D924A95E1F7F60197
:100330003F96DC014D91CD014193A217B307C9F758
:1003400081E6F601858B83E0868B80EF878B0091B9
:100350003D2010913E20A801CE0101960E9483030A
:1003600010161106C4F480E090E020E0F601E80FDA
:10037000F91FA1E0B0E0AC0FBD1FA80FB91F8C9111
:10038000808F2F5F822F90E000913D2010913E20C2
:10039000801791075CF318E1100F67E1600FC70148
:1003A0000E942101F601E10FF11D80839183065E19
:1003B000F601E00FF11D8EE78083C05BDF4FCDBFFC
:1003C000DEBFDF91CF911F910F91FF90EF90DF90F3
:1003D000CF900895CF93DF93E0E8F6E020E121830A
:1003E00080E2818390E8918338E3348B2583AEE308
:1003F000B1E2C0ECD8E0CD93DC9311971296ED9367
:10040000FC93139714961C92149728ED2883CD9192
:10041000DC911197198215961D921C9216971296CF
:100420000D90BC91A02D20EA11962C939583868384
:10043000DF91CF91089590E190938606E0E8F6E091
:10044000908596FDFDCF8093C308E2ECF8E08081B3
:100450008823ECF7E3ECF8E080816083E2ECF8E0DD
:1004600080818823ECF78091C30890E19093850602
:10047000089590E190938606E0E8F6E0908596FD79
:10048000FDCF8093C308E2ECF8E080818823ECF78D
:100490008091C30890E1909385060895CF93DF93F0
:1004A00090E190938606E0E8F6E0908596FDFDCF1A
:1004B00080648093C308E2ECF8E080818823ECF745
:1004C0008091C3084115510579F0DB01460F571F94
:1004D000C3ECD8E0E2ECF8E08D918883808188233A
:1004E000ECF7A417B507C1F780E180938506DF918B
:1004F000CF910895E0E8F6E080E1858300C086832F
:1005000000C085839BE19A95F1F700008683808582
:1005100086FDFDCF81E28A95F1F7000080E38093AC
:10052000C308E2ECF8E080818823ECF78091C308EF
:10053000E0E8F6E0808586FDFDCF91E29A95F1F73F
:10054000000080E180938506089568E080E00E94C5
:100550001B0269E081E00E941B0260E383E00E94CD
:100560001B0268E088E00E941B0260E08DE00E94B0
:100570001B0266E082E10E941B026AE083E10E94A6
:100580001B0269EA8CE10E941B0265E086E20E9480
:100590001B0260E087E20E941B0268E081E90E9482
:1005A0001B0269E28BE00E941B0260E58FE00E9463
:1005B0001B0268E484E10E941B0263E985E10E945A
:1005C0001B0265E786E10E941B026EE781E20E9442
:1005D0001B026EE78DE20E941B026DE68CE00E941A
:1005E0001B026DE78DE00E941B0261E88EE00E9415
:1005F0001B0208958FEF80938406E0E0F0E2A5E906
:10060000B1E22DE330E281918D93E217F307D9F740
:1006100086E30E9439028BE30E9439028BE30E9439
:1006200039024DE350E065E971E28FE70E944E0226
:100630008091D1218E3719F48AEA8093840683EC65
:1006400099E00197F1F700C000008BE792E901976C
:10065000F1F700C0000086E30E94390287E893E1C9
:100660000197F1F700C00000109284060895CF931F
:10067000DF93CDB7DEB7C257D109CDBFDEBFF89447
:100680000E94EA01E0E8F6E08FE080838FEF848348
:100690002FE78AE196E0215080409040E1F700C0CA
:1006A000000014820E947A020E94A50282E2E4E520
:1006B000F0E2DE01119601900D928A95E1F7FE01BC
:1006C0003196DE01AF5ABF4F9E012D5D3F4F8191A4
:1006D0008D93E217F307D9F7BE016F5A7F4F80E081
:1006E00090E20E944E0110923D208DE390E00E9426
:1006F000FA022FEF84E39CE0215080409040E1F724
:1007000000C00000F2CFFB01DC0102C001900D929D
:0C07100041505040D8F70895F894FFCFF6
:10071C00534154454C4C4954455F50524154484107
:10072C004D00000000000000000000000000000070
:10073C0000000000000000000000000000000000AD
:10074C000000000000000000000000000022004338
:10075C005120202020005655324255470052454C1E
:10076C0041592000494954424F4D42415950524140
:10077C005448414D494954424F4D424159414456C8
:08078C00495449595858000076
:00000001FF
