S0100000446F776E6C696E6B2E73726563CE
S11300000C94FE000C941F010C941F010C941F010E
S11300100C941F010C941F010C941F010C941F01DC
S11300200C941F010C941F010C941F010C941F01CC
S11300300C941F010C941F010C941F010C941F01BC
S11300400C941F010C941F010C941F010C941F01AC
S11300500C941F010C941F010C941F010C941F019C
S11300600C941F010C941F010C941F010C941F018C
S11300700C941F010C941F010C941F010C941F017C
S11300800C941F010C941F010C941F010C941F016C
S11300900C941F010C941F010C941F010C941F015C
S11300A00C941F010C941F010C941F010C941F014C
S11300B00C941F010C941F010C941F010C941F013C
S11300C00C941F010C941F010C941F010C941F012C
S11300D00C941F010C941F010C941F010C941F011C
S11300E00C941F010C941F010C941F010C941F010C
S11300F00C941F010C941F010C941F010C941F01FC
S11301000C941F010C941F010C941F010C941F01EB
S11301100C941F010C941F010C941F010C941F01DB
S11301200C941F010C941F010C941F010C941F01CB
S11301300C941F010C941F010C941F010C941F01BB
S11301400C941F010C941F010C941F010C941F01AB
S11301500C941F010C941F010C941F010C941F019B
S11301600C941F010C941F010C941F010C941F018B
S11301700C941F010C941F010C941F010C941F017B
S11301800C941F010C941F010C941F010C941F016B
S11301900C941F010C941F010C941F010C941F015B
S11301A00C941F010C941F010C941F010C941F014B
S11301B00C941F010C941F010C941F010C941F013B
S11301C00C941F010C941F010C941F010C941F012B
S11301D00C941F010C941F010C941F010C941F011B
S11301E00C941F010C941F010C941F010C941F010B
S11301F00C941F010C941F010C941F0111241FBEA9
S1130200CFEFCDBFDFE3DEBF00E00CBF10E2A0E024
S1130210B0E2E6E1F9E000E00BBF02C007900D9206
S1130220AE38B107D9F721E2AEE8B0E201C01D92C1
S1130230A83EB207E1F70E9432040C9489040C949E
S113024000007FEF760F662329F1E82FF92F4FEF97
S11302505FEF21912527322F32953F70922F9327FC
S1130260292F30E0542F442742275327C901982FC0
S113027088279295907F48275927220F331F22956C
S11302803295307F3227207F3227422753277150FF
S113029000F702C04FEF5FEFCA010895CF92DF92DB
S11302A0EF92FF920F931F93CF93DF93CDB7DEB7F7
S11302B0C055D109CDBFDEBF6C018EE7D6018D9349
S11302C07D0186E0E5E5F0E2DE01119601900D92F4
S11302D08A95E1F7CE010196D7019E01295F3F4F30
S11302E0FC0141914D93E217F307D9F740E6F6017B
S11302F0478346E0ECE5F0E2DE01119601900D92B1
S11303004A95E1F7D6011896FC0141914D93E21705
S1130310F307D9F748E6D6011E964C9346E0E3E688
S1130320F0E2DE01119601900D924A95E1F7F60193
S11303303F96DC014D91CD014193A217B307C9F754
S113034081E6F601858B83E0868B80EF878B0091B5
S1130350532010915420A801CE0101960E948004DC
S113036010161106C4F480E090E020E0F601E80FD6
S1130370F91FA1E0B0E0AC0FBD1FA80FB91F8C910D
S1130380808F2F5F822F90E0009153201091542092
S1130390801791075CF318E1100F67E1600FC70144
S11303A00E942101F601E10FF11D80839183065E15
S11303B0F601E00FF11D8EE78083C05BDF4FCDBFF8
S11303C0DEBFDF91CF911F910F91FF90EF90DF90EF
S11303D0CF900895FC01958526859F5F937081E0F9
S11303E0921301C080E008951F93CF93DF93EC0133
S11303F0162F0E94EA01882379F09D85FE01E90FFA
S1130400F11D17839F5F93709D87E881F981938124
S11304109C7F2A81922B9383DF91CF911F91089522
S1130420CF93DF93E0E8F6E020E1218380E281834B
S113043090E8918338E3348B2583A4E5B1E2C0ECE2
S1130440D8E0CD93DC9311971296ED93FC93139718
S113045014961C92149728ED2883CD91DC91119762
S1130460198215961D921C92169712960D90BC91A6
S1130470A02D20EA11962C9395838683DF91CF914A
S1130480089590E190938606E0E8F6E0908596FD65
S1130490FDCF80688093C308E2ECF8E08081882374
S11304A0ECF7E3ECF8E080811082E2ECF8E0808184
S11304B08823ECF78091C30890E190938506089512
S11304C090E190938606E0E8F6E0908596FDFDCFF6
S11304D08093C308E2ECF8E080818823ECF7E3EC36
S11304E0F8E080816083E2ECF8E080818823ECF717
S11304F08091C30890E190938506089590E19093CC
S11305008606E0E8F6E0908596FDFDCF8093C3086B
S1130510E2ECF8E080818823ECF78091C30890E155
S1130520909385060895CF93DF9390E19093860688
S1130530E0E8F6E0908596FDFDCF80648093C308E3
S1130540E2ECF8E080818823ECF78091C308411540
S1130550510579F0DB01460F571FC3ECD8E0E2ECFC
S1130560F8E08D91888380818823ECF7A417B50780
S1130570C1F780E180938506DF91CF910895E0E88B
S1130580F6E080E1858300C0868300C085839BE11B
S11305909A95F1F700008683808586FDFDCF81E280
S11305A08A95F1F7000080E38093C308E2ECF8E059
S11305B080818823ECF78091C308E0E8F6E0808529
S11305C086FDFDCF91E29A95F1F7000080E18093DA
S11305D085060895CF93DF93E0E4F6E098E09183F5
S11305E094E09283A5E4B1E2E0EAF8E0ED93FC93B1
S11305F0119791E012969C9312971C961C921C974B
S11306001B961C921B971E961C921E971D961C925D
S113061093E0958393819F7C906193839CE0968380
S11306201782948190619483948198609483E0EA22
S1130630F0E092819160928378948093CB20CBEC0C
S1130640D0E2688185E491E20E94F4018823C9F331
S1130650DF91CF910895CF93DF93EC01688182E01D
S11306600E94600282E00E9441020E94EA026981C3
S113067083E00E94600283E00E9441020E94EA0239
S11306806A8188E00E94600288E00E9441020E9420
S1130690EA026B818BE00E9460028BE00E944102BF
S11306A00E94EA026C818DE00E9460028DE00E944B
S11306B041020E94EA026D818EE00E9460028EE097
S11306C00E9441020E94EA026E818FE00E94600251
S11306D08FE00E9441020E94EA026F8180E10E9441
S11306E0600280E10E9441020E94EA02688581E181
S11306F00E94600281E10E9441020E94EA0269852F
S113070082E10E94600282E10E9441020E94EA02A8
S11307106A8585E10E94600285E10E9441020E948F
S1130720EA026B8588E10E94600288E10E9441022E
S11307300E94EA026C8589E10E94600289E10E94BC
S113074041020E94EA026D8580E20E94600280E21A
S11307500E9441020E94EA026E8583E20E946002C6
S113076083E20E9441020E94EA026F8584E20E94B1
S1130770600284E20E9441020E94EA02688985E2E2
S11307800E94600285E20E9441020E94EA02698995
S113079086E20E94600286E20E9441020E94EA020E
S11307A06A898CE20E9460028CE20E9441020E94EB
S11307B0EA026B898DE20E9460028DE20E9441028E
S11307C00E94EA026C898EE20E9460028EE20E941C
S11307D041020E94EA02DF91CF9108958FEF809346
S11307E08406E6E1F0E2ABEAB1E223E530E281918E
S11307F08D93E217F307D9F786E30E947E0241E066
S113080050E060E070E28EE30E9493028BE30E946A
S11308107E0285E30E947E024DE350E06BEA71E2C2
S11308208FE30E9493028091E7218E3719F48AEABC
S11308308093840683EC99E00197F1F700C00000EF
S11308408BE792E90197F1F700C0000086E30E946C
S11308507E0287E893E10197F1F700C0000010924F
S113086084060895CF93DF93CDB7DEB7C257D1097D
S1130870CDBFDEBFF8940E941002E0E8F6E08FE0FE
S113088080838FEF84832FE78AE196E021508040B4
S11308909040E1F700C0000014820E94BF0281E092
S11308A090E20E942B0382E2EAE6F0E2DE01119676
S11308B001900D928A95E1F7FE013196DE01AF5A5F
S11308C0BF4F9E012D5D3F4F81918D93E217F3073A
S11308D0D9F7BE016F5A7F4F86E190E20E944E0124
S11308E0109253208DE390E00E94EE032FEF84E3F7
S11308F09CE0215080409040E1F700C00000F2CF1E
S1130900FB01DC0102C001900D9241505040D8F728
S10909100895F894FFCFE6
S113091660064F050610D340F88343151816FBE905
S11309262A001F813509534154454C4C4954455FAF
S11309365052415448414D000000000000000000A0
S1130946000000000000000000000000000000009D
S1130956000000000000000000000000000000008D
S11309660000002200435120202020005655324228
S113097655470052454C41592000494954424F4D70
S11309864241595052415448414D494954424F4DB0
S11109964241594144564954495958580000A9
S9030000FC
